:030000000208D61D
:0C08D600787FE4F6D8FD75810F020896CB
:0808E2000109080C04060203E1
:10089600D288D28AD2A8D2AAD2AF750A01750BF431
:1008A600750C00750D0175080075090112080080A8
:0108B600FB46
:10080000E50D6401450C701BF50EF50F1208B705D8
:100810000FE50F7002050EC39408E50E6480948006
:1008200040EA22750E00750F081208B7E50F150F84
:100830007002150ED3E50F9400E50E64809480508D
:01084000E8CF
:010841002294
:1008B70074E2250FF5827408350EF583E493F590FD
:0408C700AF0BAE0ABB
:0B08CB00EF1FAC0670011E4C70F622FF
:0300030002086E82
:10086E00C0E0C0D075D000C006C007E50D640145DC
:10087E000C7004FEFF80047E007F018E0C8F0DD065
:08088E0007D006D0D0D0E03203
:030013000208429E
:10084200C0E0C0D075D000C006C007E50BB4F40B01
:10085200E50AB401067E0B7FB880047E017FF48E28
:0C0862000A8F0BD007D006D0D0D0E032B7
:00000001FF
