:030000000208777C
:0C087700787FE4F6D8FD75810D0208665C
:08088300010204080C06030940
:1008660075080B7509B8750A00750B021208008029
:01087600FB86
:10080000E50B6401450A7023F50CF50D7483250D85
:10081000F582740812084F050DE50D7002050CC332
:100820009404E50C6480948040E222E4F50CF50D1C
:100830007487250DF582740812084F050DE50D70BB
:0E08400002050CC39404E50C6480948040E231
:01084E002287
:0C084F00350CF583E493F590AF09AE087A
:0B085B00EF1FAC0670011E4C70F6226F
:00000001FF
