:02000000802E50
:0200030021E6F4
:1000300075A881758131C288D2D3780079007A00A1
:100040007B00C2D3D200C2D3780079047AF7D28081
:10005000EAF5A030801830A7170830A6130830A59D
:100060000F0830A40B0803FAD9E431BD80D88072A0
:10007000317C900212E893B40A028058B40B0280DB
:1000800053B40C02804EB40D028049B40F028007B5
:10009000B40E0280332122C0D0D2D37513FA31BD01
:1000A000D513FBEA60031A80F2E96005197A09802A
:1000B000EAE860071879097A0980E0E514F8E5159F
:1000C000F9E516FAD0D080A2D2D3780779057A095B
:1000D00031BD0146D2D3C0E0C200780079007A0079
:1000E0008088317CD2D3E581B43163D00B31FAC042
:1000F000D0751903D2D3EAF520780A790A7A0A75FD
:1001000021FA3189D521FBE9FAE8F9E520F87520D3
:100110000A7521FA3189D521FBD519EBC2D3D0D08C
:100120000146D2D3FFE9F8EAF9EFFAE875F064A4E2
:10013000FBE975F00AA48BF025F08AF025F0FB307E
:100140000006E5819401F581C00BD200016AD00E52
:10015000D00DD00C315AC00B016AEC8EF0BD0A06EE
:1001600025F0FB31FA22BD0B0695F0FB31FA22BDDA
:100170000C05A4FB31FA2284FB31FA227D037EC8F0
:100180007FFADFFEDEFADDF622900222D2D3C2B47D
:10019000E52093F59031E1D2B4C2B5E893F5903102
:1001A000E131E1D2B5C2B6E993F59031E131E1D266
:1001B000B6C2B7EA93F59031E131E1D2B7900222AD
:1001C000D2D3C2B5E893F59031E1D2B5C2B6E99386
:1001D000F59031E1D2B6C2B7EA93F59031E1D2B7EA
:1001E000227F96DFFE22C0D0C0E0D2D3E8F514E92A
:1001F000F515EAF516D0E0D0D032EB75F00A84AAF6
:10020000F075F00A84A9F0F8227E6431BDDEFCDDD1
:10021000F8220102030A0405060B0708090C0F0067
:0D0220000E0DC0F9A4B0999282D88090FF15
:00000001FF
