:0300000002089A59
:0C089A00787FE4F6D8FD75810A020800A2
:0E088C0048656C6C6F2C20776F726C642100D5
:100800007F381208757F0F120875E4FDFC7F061211
:100810000878E4FDFC7F01120878E4FDFC7F80127B
:1008200008787BFF7A08798C120835E4FDFC7F1488
:0508300012087880FEB3
:100835008B088A09890AAB08AA09A90A12085CFF6C
:1008450060147D017C001208787401250AF50AE41C
:070855003509F50980E022DE
:03087500E4FDFCA3
:100878008FA0EC4D24FF92B6D2B77F647E00120899
:04088800A6C2B7222B
:0B08A600EF1FAC0670011E4C70F62224
:10085C00BB010689828A83E0225002E722BBFE029A
:09086C00E32289828A83E49322CD
:00000001FF
