:030000000209549E
:0C095400787FE4F6D8FD75810A020800E7
:0A09600045393430393631313000AA
:10080000E4FDFC7F38120912E4FDFC7F0F1209128F
:10081000E4FDFC7F06120912E4FDFC7F01120912BF
:10082000E4FDFC7FC01209127BFF7A09796012088F
:10083000E5E4FDFC7F4012091212090C7D017C00E9
:100840007F0E1209127D017C007F1F1209127D01AB
:100850007C007F151209127D017C007F0E120912A7
:100860007D017C007F0E12091212090C12090CE4A2
:10087000FDFC7F4812091212090C7D017C007F0AE1
:100880001209127D017C007F0A12091212090C7DE7
:10089000017C007F111209127D017C007F0E12097C
:1008A0001212090C12090CE4FDFC7F8012091212CD
:1008B000090CE4FDFC7F8F1209127D017C007F0191
:1008C0001209121209451209451209451209451269
:1008D0000945120945120945120945E4FDFC7F0846
:0508E00012091280FE68
:1008E5008B088A09890AAB08AA09A90A12092CFFEB
:1008F50060147D017C001209127401250AF50AE4D1
:070905003509F50980E0222D
:06090C007D017C00E4FF08
:100912008F90EC4D24FF92B0D2B17FF47E01120988
:0A09220049C2B17FF47E01020949C9
:040945007F887E1316
:0B094900EF1FAC0670011E4C70F62280
:10092C00BB010689828A83E0225002E722BBFE02C9
:09093C00E32289828A83E49322FC
:00000001FF
