:1000000090009D7D02780179047AF7EAF5A030A787
:10001000120830A60E0830A50A0830A41203FAD937
:10002000EA80E2118BE8DD03FE80DAF5F080D6117C
:100030008B30A30930A21D30A12630A03BEE25F065
:1000400075F00A8493F5901194E5F093F59011946E
:100050007D0280B1EE95F0119493F5907D0280A51C
:10006000EEA4119475F00A8493F5901194E5F09341
:10007000F59011947D02808DEE8493F5901194118A
:1000800094E5F093F5907D020200057C327BFADB6B
:10009000FEDCFA227CFA7BFADBFEDCFA22039F25E7
:0700A0000D9949411B010904
:00000001FF
