:02000000806E10
:10000300C0D0C0E011F99001ACD2D3C2B4E51193D2
:10001300F5903197D2B4C2B5E893F5903197319703
:10002300D2B5C2B6E993F59031973197D2B6C2B73C
:10003300EA93F59031973197D2B780CAD0E0D0D008
:1000430032C0D0751404D2D3E8F511E9F8EAF97A8D
:100053000A7512FA3164D512FBD514ECD2807511EE
:10006300007A0079007800C2D3D0D0801D75813228
:1000730075A881D288D2D3780079007A007C007D7C
:10008300007E00751100C2D3D280780079047AF71C
:100093003080AEEAF5A030A7150830A6110830A5C8
:1000A3000D0830A4090803FAD9E6313180DC312484
:1000B30090019CE893B40C02803CB40A028009B41A
:1000C3000B02801111E980E2C0D0D2D309B90A1220
:1000D300790008800DC0D0D2D319B9FF057909186A
:1000E3008000D0D080C4C0D0D2D3F510E9F8EAF9AB
:1000F300E510FAD0D022C0D0D2D37B643131DBFCFF
:10010300EA60031A80F4E96005197A0980ECE86073
:08011300071879097A0980E25E
:10011B00ECF8EDF9EEFAD0D0227D037EC87FFADF42
:10012B00FEDEFADDF6229001ACC0D0D2D3C2B4E52C
:10013B001193F5903197D2B4C2B5E893F5903197FE
:10014B00D2B5C2B6E993F5903197D2B6C2B7EA935E
:10015B00F5903197D2B7D0D0229001ACC0D0D2D38A
:10016B00C2B4E51193F5903197D2B4C2B5E893F5CB
:10017B00903197D2B5C2B6E993F5903197D2B6C20A
:10018B00B7EA93F5903197D2B7D0D0227FA4DFFE98
:10019B00220102030A0405060B0708090C0E000FC7
:0C01AB000DC0F9A4B0999282F88090FF7A
:00000001FF
