:03000000020E9C51
:0C0E9C00787FE4F6D8FD758149020EE372
:100AD9004C4F57202020202020202020202020207B
:100AE90020004D4944444C4520202020202020202E
:100AF900202020004849474820202020202020206D
:100B09002020202020003D202020202020202020DF
:100B1900202020202020003D3D20202020202020B2
:100B290020202020202020003D3D3D202020202085
:100B39002020202020202020003D3D3D3D20202058
:100B4900202020202020202020003D3D3D3D3D202B
:100B590020202020202020202020003D3D3D3D3D1B
:100B69003D20202020202020202020003D3D3D3D0B
:100B79003D3D3D202020202020202020003D3D3DDE
:100B89003D3D3D3D3D2020202020202020003D3DB1
:100B99003D3D3D3D3D3D3D20202020202020003D84
:100BA9003D3D3D3D3D3D3D3D3D2020202020200057
:100BB9003D3D3D3D3D3D3D3D3D3D3D2020202020ED
:100BC900003D3D3D3D3D3D3D3D3D3D3D3D202020E0
:100BD90020003D3D3D3D3D3D3D3D3D3D3D3D3D20B3
:100BE9002020003D3D3D3D3D3D3D3D3D3D3D3D3DA3
:100BF9003D2020003D3D3D3D3D3D3D3D3D3D3D3D93
:100C09003D3D3D20003D3D3D3D3D3D3D3D3D3D3D65
:100C19003D3D3D3D3D0045393430393631313000B7
:100C290020202020202020202020202020202020BB
:100C3900004265737428342900576F72737428321F
:020C4900290080
:100FB200031D000000112346696E616C2065786193
:100FC2006D20202020202000110A46696E616C20CD
:0B0FD2006578616D20202020202000A9
:10080000120F83E4FDFC7F38121000E4FDFC7F0F23
:10081000121000E4FDFC7F06121000E4FDFC7F01D5
:10082000121000121010120DFCE522640545216023
:10083000030209A9E535453460030209A9AF90F523
:100840001B8F1CC3E51C9451E51B648094805010E1
:10085000E4FDFC7F801210007BFF7A0A79D9803A90
:10086000C37450951CE51B6480F8748098501DC3B8
:10087000E51C94ABE51B648094805010E4FDFC7F84
:10088000801210007BFF7A0A79EB800EE4FDFC7F7A
:10089000801210007BFF7A0A79FD120FE4AE1BAFC5
:1008A0001C7C007D10120D71EE6003020829EFB46C
:1008B000100040030208299008BEF8282873020897
:1008C000EE0208FA02090602091202091E02092AAA
:1008D00002093602094202094D020958020963025F
:1008E000096E02097902098402098F02099A120F1E
:1008F000FB7BFF7A0B790F0209A3120FFB7BFF7AB8
:100900000B79200209A3120FFB7BFF7A0B793102CE
:1009100009A3120FFB7BFF7A0B79420209A3120F86
:10092000FB7BFF7A0B79530209A3120FFB7BFF7A43
:100930000B79640209A3120FFB7BFF7A0B79750216
:1009400009A3120FFB7BFF7A0B79868056120FFBEF
:100950007BFF7A0B7997804B120FFB7BFF7A0B7929
:10096000A88040120FFB7BFF7A0B79B98035120FFC
:10097000FB7BFF7A0B79CA802A120FFB7BFF7A0B75
:1009800079DB801F120FFB7BFF7A0B79EC8014124E
:100990000FFB7BFF7A0B79FD8009120FFB7BFF7A3F
:1009A0000C790E120FE4020829E52264014521703A
:1009B00021E5374536701BFDFC7F01121000E4FD78
:1009C000FC7F80121000120FDE75360075370102B1
:1009D0000829E52264024521704DFDFC7F011210BB
:1009E00000E522640245216003020829FDFC7F80A6
:1009F000121000853220120FDE753A00753B0FAFE2
:100A00003B74222FF8E6FE74232FF8A606E53B156B
:100A10003B7002153AE53B453A70E48520237F1090
:100A20007E2712101480BAE5226403452160030278
:100A30000829FDFC7F01121000E5226403452160B6
:100A400003020829FDFC7F80121000120FDEE4F57E
:100A500042F543AF4374242FF8E6FE74232FF8A623
:100A6000060543E543700205426410454270E4E424
:100A7000F542F543AF4374242FF8E6FE74232FF8B4
:100A8000A6060543E543700205426410454270E442
:100A9000053FE53F7002053E6410453E7031F5406C
:100AA00075410FAF4174FB2FF8E6FE74232FF8A6B3
:100AB00006E541154170021540E541B4FFE5E5400A
:100AC000B4FFE07F647E00121014E4F53EF53F7F32
:090AD000207E4E121014020A39B6
:100DFC00E4FDFC7F401210007D017C00E4FF12102A
:100E0C00007D017C007F0E1210007D017C007F1F95
:100E1C001210007D017C007F151210007D017C00FA
:100E2C007F0E1210007D017C007F0E1210007D01E0
:100E3C007C00E4FF1210007D017C00E4FF12100026
:100E4C00E4FDFC7F481210007D017C00E4FF1210D1
:100E5C00007D017C007F0A1210007D017C007F0A5E
:100E6C001210007D017C00E4FF1210007D017C005B
:100E7C007F111210007D017C007F0E1210007D018D
:100E8C007C00E4FF1210007D017C00E4FF021000E6
:100F8300759850758920D28E75A895E4F508F509F2
:100F9300F521752205F544F545F546F547F548F580
:0F0FA30049F536753701F534F535F53EF53F2242
:03001300020F28B1
:100F2800C0E0C0F0C083C082C0D075D000C000C08F
:100F380001C002C003C004C005C006C00775360062
:100F48007537000522E522700205216404452170E9
:100F580005F52175220130B3FD7F107E271210148C
:100F6800D007D006D005D004D003D002D001D000DD
:0B0F7800D0D0D082D083D0F0D0E03287
:03000300020C4BA1
:100C4B00C0E0C0F0C083C082C0D075D000C000C06F
:100C5B0001C002C003C004C005C006C00775360042
:100C6B00753701753400753501E5094508701FFDB1
:100C7B00FC7F01121000E4FDFC7F0C1210007508C4
:100C8B000075090130B2FD7F307E75020D3AE50922
:100C9B00640145087044FDFC7F801210007BFF7AD5
:100CAB000C791F120FE4E4FDFC7F8E121000121062
:100CBB00107D017C00E4FF121000E4FDFC7F8F121D
:100CCB0010007D017C007F01121000750800750972
:100CDB000330B2FD7F107E278055E4FDFC7F0F12A1
:100CEB001000E4FDFC7F801210007BFF7A0C792949
:100CFB00120FE4120FFB7BFF7A0C7929120FE4E43D
:100D0B00FDFC7F801210007BFF7A0C793A120FE406
:100D1B00120FFB7BFF7A0C7942120FE475080075FA
:100D2B00090075210075220030B2FD7F107E27125D
:100D3B001014D007D006D005D004D003D002D001B8
:0D0D4B00D000D0D0D082D083D0F0D0E032E4
:041010007F2C7E01B2
:0B101400EF1FAC0670011E4C70F622AE
:050FFB00E4FDFC7FC0D5
:101000008FA0EC4D24FF92B6D2B7121010C2B722B7
:060FDE007B007A0079237C
:100FE400120D58FF60107D017C001210007401295D
:070FF400F9E43AFA80EA2259
:100EA800020800E493A3F8E493A34003F68001F258
:100EB80008DFF48029E493A3F85407240CC8C3334B
:100EC800C4540F4420C8834004F456800146F6DF1A
:100ED800E4800B0102040810204080900FB2E47EE9
:100EE800019360BCA3FF543F30E509541FFEE4930F
:100EF800A360010ECF54C025E060A840B8E493A3D6
:100F0800FAE493A3F8E493A3C8C582C8CAC583CA00
:100F1800F0A3C8C582C8CAC583CADFE9DEE780BEB8
:010FDD000013
:100D5800BB010689828A83E0225002E722BBFE0299
:090D6800E32289828A83E49322CC
:100D7100C2D5EC30E709B2D5E4C39DFDE49CFCEE9D
:100D810030E715B2D5E4C39FFFE49EFE120DA7C361
:100D9100E49DFDE49CFC8003120DA730D507C3E45C
:060DA1009FFFE49EFE220C
:100DA700BC000BBE0029EF8DF084FFADF022E4CC30
:100DB700F875F008EF2FFFEE33FEEC33FCEE9DECF9
:100DC700984005FCEE9DFE0FD5F0E9E4CEFD22ED3F
:100DD700F8F5F0EE8420D21CFEADF075F008EF2F89
:100DE700FFED33FD4007985006D5F0F222C398FD7A
:050DF7000FD5F0EA2217
:00000001FF
