:0300000002088B68
:0C088B00787FE4F6D8FD758107020800B4
:10080000AF90D3EF941C7480948040028001D39207
:10081000A0AF90D3EF94387480948040028001D3CD
:1008200092A1AF90D3EF94547480948040028001E1
:10083000D392A2AF90D3EF947074809480400280E2
:1008400001D392A3AF90D3EF948C74809480400234
:100850008001D392A4AF90D3EF94A8748094804089
:10086000028001D392A5AF90D3EF94C4748094809A
:1008700040028001D392A6AF90D3EF94E0748094AD
:0B0880008040028001D392A702080014
:00000001FF
