:030000000208FDF6
:0C08FD00787FE4F6D8FD75811E020944E6
:100989000916453934303936313130090865393479
:0E0999003039363131300211000002140001F5
:0509D1001209C280FEC6
:0F09C200759850758920758DE6D28E75A8902294
:03002300020800D0
:10080000C0E0C0F0C083C082C0D075D000C000C0BE
:1008100001C002C003C004C005C006C00720980381
:100820000208D7C298AF1274162FF8E66599600FC8
:1008300074082FF8E66599600675140075150005B3
:1008400012E51270020511C39409E51164809480C9
:1008500050030208D7E5156401451470411209A838
:1008600075990D1209AB7599431209AB75994F1221
:1008700009AB7599521209AB7599521209AB75996A
:10088000451209AB7599431209AB7599541209AB1E
:100890001209A875990D7511007512008039120999
:1008A000A875990D1209AB7599571209AB75995234
:1008B0001209AB75994F1209AB75994E1209AB75B8
:1008C00099471209AB1209A875990D751100751297
:1008D00000751400751501309902C2998599138528
:1008E00013A0D007D006D005D004D003D002D00189
:0D08F000D000D0D0D082D083D0F0D0E03244
:0709A80075990A7F407E1FD4
:1009AF00D3EF9400EE648094804007EF1F70F11E28
:0309BF0080EE22A5
:100909000209D1E493A3F8E493A34003F68001F22A
:1009190008DFF48029E493A3F85407240CC8C333EF
:10092900C4540F4420C8834004F456800146F6DFBE
:10093900E4800B0102040810204080900989E47EBC
:10094900019360BCA3FF543F30E509541FFEE493B3
:10095900A360010ECF54C025E060A840B8E493A37A
:10096900FAE493A3F8E493A3C8C582C8CAC583CAA5
:10097900F0A3C8C582C8CAC583CADFE9DEE780BE5D
:0109A700004F
:00000001FF
