:0300000002089360
:0C089300787FE4F6D8FD75810702087D2F
:10087D0075890975B80275A88275881075A0FE7FF7
:06088D000112085180F980
:03000B00020800E8
:10080000C0E0C0F0C083C082C0D075D000C000C0BE
:1008100001C002C003C004C005C006C007AFA0EFFE
:10082000647F700575A0FE8008E5A025E0F5A0D2E4
:10083000A07F05120851D007D006D005D004D00300
:10084000D002D001D000D0D0D082D083D0F0D0E080
:010850003275
:10085100EFD39400748094804021E4FEEEC394971A
:10086100748094805012E4FDEDC3943B74809480B5
:0B08710050030D80F30E80E41F80D5C3
:01087C002259
:00000001FF
